:020000040800F2
:10000000B008002439030008B94600086F4500080D
:10001000B546000897040008314E000800000000B3
:10002000000000000000000000000000DD4B0008A0
:10003000AD0A000800000000BD460008DF4B0008C4
:100040005303000853030008530300085303000838
:100050005303000853030008530300085303000828
:100060005303000853030008530300089D040008CD
:10007000AD040008530300085303000853030008AD
:1000800053030008530300085303000853030008F8
:1000900053030008530300085303000853030008E8
:1000A00053030008530300085303000853030008D8
:1000B00053030008530300085303000853030008C8
:1000C00053030008530300085303000853030008B8
:1000D00053030008530300085303000853030008A8
:1000E00053030008530300080000000053030008F6
:1000F0005303000853030008530300085303000888
:10010000530300085303000853030008CD490008B7
:100110005303000853030008530300085303000867
:100120005303000853030008530300085303000857
:100130005303000853030008530300085303000847
:1001400000000000000000000000000000000000AF
:100150005303000853030008530300085303000827
:100160005303000853030008530300085303000817
:100170005303000853030008530300080000000065
:1001800053030008530300085303000853030008F7
:1001900053030008530300085303000853030008E7
:1001A00053030008530300085303000853030008D7
:1001B00053030008530300085303000853030008C7
:1001C00053030008530300085303000853030008B7
:1001D00053030008530300085303000853030008A7
:1001E0005303000853030008530300085303000897
:1001F0005303000853030008530300085303000887
:100200005303000853030008530300085303000876
:100210005303000853030008530300085303000866
:1002200053030008530300085303000800000000B4
:1002300053030008530300080000000053030008A4
:100240005303000853030008530300085303000836
:100250005303000853030008530300085303000826
:100260005303000853030008530300085303000816
:100270005303000853030008530300080000000064
:100280005303000853030008530300080000000054
:10029000000000005303000800F002F800F03CF8F2
:1002A0000AA090E8000C82448344AAF10107DA45D1
:1002B00001D100F031F8AFF2090EBAE80F0013F0E7
:1002C000010F18BFFB1A43F0010318472854000020
:1002D00048540000103A24BF78C878C1FAD85207B1
:1002E00024BF30C830C144BF04680C6070470000B0
:1002F0000023002400250026103A28BF78C1FBD82F
:10030000520728BF30C148BF0B6070471FB504F0CB
:10031000C9FD1FBD10B510BD00F084F81146FFF7F0
:10032000F5FF04F0A3FD00F0A2F803B4FFF7F2FF1D
:1003300003BC00F0A9F800000948804709480047BD
:10034000FEE7FEE7FEE7FEE7FEE7FEE7FEE7FEE785
:10035000FEE7FEE704480549054A064B70470000E2
:10036000354D000899020008B0020024B0080024AE
:10037000B0040024B004002440EA010310B59B0738
:100380000FD1042A0DD310C808C9121F9C42F8D0FF
:1003900020BA19BA884201D9012010BD4FF0FF30B0
:1003A00010BD1AB1D30703D0521C07E0002010BDC6
:1003B00010F8013B11F8014B1B1B07D110F8013B52
:1003C00011F8014B1B1B01D1921EF1D1184610BD33
:1003D0004FF0000200B5134694469646203922BFDE
:1003E000A0E80C50A0E80C50B1F12001BFF4F7AF29
:1003F000090728BFA0E80C5048BF0CC05DF804EB0B
:10040000890028BF40F8042B08BF704748BF20F878
:10041000022B11F0804F18BF00F8012B7047704776
:1004200070477047754600F02BF8AE4605006946E8
:10043000534620F00700854618B020B5FFF78AFF25
:10044000BDE820404FF000064FF000074FF00008D5
:100450004FF0000B21F00701AC46ACE8C009ACE856
:10046000C009ACE8C009ACE8C0098D46704710B5BA
:100470000446AFF300802046BDE81040FFF755BFAB
:10048000004870475002002401491820ABBEFEE727
:1004900026000200704700BFFEE7000010B50248CA
:1004A00000F0D8FC10BD00006001002410B5024827
:1004B00000F0D0FC10BD0000D80100240146374AEE
:1004C0000868904249D0354A18320868904244D0B2
:1004D000324A3032086890423FD0304A4832086889
:1004E00090423AD02D4A60320868904235D02B4A6B
:1004F00078320868904230D0284A9032086890429A
:100500002BD0264AA8320868904226D0244A086890
:10051000904222D0224A1832086890421DD0204AC8
:1005200030320868904218D01D4A4832086890421C
:1005300013D01B4A6032086890420ED0184A7832B5
:100540000868904209D0164A90320868904204D058
:10055000134AA8320868904201D1012000E000202F
:10056000B0B10A78103A1823B2FBF3F000F007029A
:100570000C4B9A5CCA65032805D90A686FF3090217
:10058000121D8A6503E00A686FF309028A6503E0B9
:10059000086820F0FF008865886D704710000240F1
:1005A00010040240DC56000810B502682B4C0368AA
:1005B000A34222D0294C14340368A3421DD0274CF7
:1005C00028340368A34218D0244C3C340368A34267
:1005D00013D0224C50340368A3420ED01F4C643415
:1005E0000368A34209D01D4C78340368A34204D0A9
:1005F0001A4C8C340368A34201D1012300E000238C
:100600008BB10378083B1424B3FBF4F1144B03EBD8
:1006100081030366124B8033436601F01F040123FC
:10062000A340836618E00378103B1824B3FBF4F171
:100630000C4B9A4204D80B4BA83B9A4200D308318A
:10064000094B03EB81030366074B8033436601F0DC
:100650001F040123A340836610BD00000854025804
:1006600000580258B8040240000802400179A9B3BA
:10067000082940D8204B02689A4222D01E4B1433DE
:1006800002689A421DD01C4B283302689A4218D047
:10069000194B3C3302689A4213D0174B503302680F
:1006A0009A420ED0144B643302689A4209D0124B1E
:1006B000783302689A4204D00F4B8C3302689A4216
:1006C00001D1012200E000224AB14A1E0B4B03EB8C
:1006D0008202C266094A4032026708E00BE04A1E05
:1006E000074B03EB8202C266054A403202674A1E8C
:1006F0000123934043677047085402580059025839
:1007000000090240014600208A69D2B98A6A32B1E2
:10071000012A0DD0022A03D0032A10D10EE000BF17
:10072000CA6A02F08072B2F1807F00D1012007E036
:10073000CA6AB2F1C07F00D1012001E000E000BF31
:1007400036E08A69B2F5005F1BD18A6A32B1012AAC
:1007500007D0022A03D0032A11D10AE000BF0120EA
:100760000EE0CA6A02F08072B2F1807F00D10120EF
:1007700006E0CA6AB2F1C07F00D1012000E000BFEC
:1007800016E08A6A32B1012A05D0022A04D0032A6F
:100790000CD103E000BF00BF012008E0CA6A02F0EC
:1007A0008072B2F1807F00D1012000E000BF00BF65
:1007B000704700001B48006840F0010019490860BC
:1007C000002019490861194888611948C861042046
:1007D00048610846006940F4806008610846006985
:1007E00040F0400008610846006940F001000861DF
:1007F000002088620D48103008630E4848630420CA
:10080000C8620846806A40F4806088620846806A50
:1008100040F0800088620846806A40F001008862EB
:1008200070470000D844025800000240203C0040BD
:100830000000002404000024F0B5856D846D984FFD
:100840000668BE4270D0964F18370668BE426BD01D
:10085000934F30370668BE4266D0914F48370668DE
:10086000BE4261D08E4F60370668BE425CD08C4F6E
:1008700078370668BE4257D0894F90370668BE4227
:1008800052D0874FA8370668BE424DD0854F0668C4
:10089000BE4249D0834F18370668BE4244D0814FCC
:1008A00030370668BE423FD07E4F48370668BE42AA
:1008B0003AD07C4F60370668BE4235D0794F7837E2
:1008C0000668BE4230D0774F90370668BE422BD0C4
:1008D000744FA8370668BE4226D0734F0668BE42E2
:1008E00022D0714F14370668BE421DD06E4F283794
:1008F0000668BE4218D06C4F3C370668BE4213D023
:10090000694F50370668BE420ED0674F643706689D
:10091000BE4209D0644F78370668BE4204D0624FA9
:100920008C370668BE4201D1012600E000263EB1A8
:10093000D0E919767E60C66E16B1D0E91C767E606D
:10094000574F0668BE4249D0554F18370668BE4219
:1009500044D0534F30370668BE423FD0504F4837DF
:100960000668BE423AD04E4F60370668BE4235D068
:100970004B4F78370668BE4230D0494F90370668F3
:10098000BE422BD0464FA8370668BE4226D0454F00
:100990000668BE4222D0434F18370668BE421DD0BB
:1009A000404F30370668BE4218D03E4F4837066881
:1009B000BE4213D03B4F60370668BE420ED0394F5F
:1009C00078370668BE4209D0364F90370668BE4277
:1009D00004D0344FA8370668BE4201D1012600E09A
:1009E0000026DEB190F85C6006F01F073F26BE408F
:1009F000AE600668366826F4802607683E600668A2
:100A000073608668402E04D10668B2600668F160A3
:100A100044E00668B1600668F2603FE0224F066875
:100A2000BE4222D0204F14370668BE421DD01E4F52
:100A300028370668BE4218D01B4F3C370668BE42B6
:100A400013D0194F50370668BE420ED0164F643788
:100A50000668BE4209D0144F78370668BE4204D0FB
:100A6000114F8C370668BE4201D1012600E00026F6
:100A7000A6B190F85C6006F01F070126BE406660D4
:100A8000066873608668402E04D10668B260066806
:100A9000F16003E00668B1600668F260F0BD000036
:100AA000100002401004024008540258704772B609
:100AB00000BFFEE770B504460CB9012070BD94F884
:100AC0003500022803D0802060650120F6E7DC496C
:100AD0002068884249D0DA4918312068884244D0D9
:100AE000D7493031206888423FD0D5494831206805
:100AF00088423AD0D24960312068884235D0D04906
:100B000078312068884230D0CD49903120688842C1
:100B10002BD0CB49A8312068884226D0C94920680B
:100B2000884222D0C7491831206888421DD0C54963
:100B300030312068884218D0C24948312068884244
:100B400013D0C0496031206888420ED0BD49783149
:100B50002068884209D0BB4990312068884204D07F
:100B6000B849A8312068884201D1012000E0002066
:100B7000F0B3042084F83500B149206888424BD096
:100B8000AF4918312068884246D0AD4930312068DD
:100B9000884241D0AA494831206888423CD0A849BF
:100BA00060312068884237D0A54978312068884272
:100BB00032D0A3499031206888422DD0A049A83175
:100BC0002068884228D09F492068884224D09D49C7
:100BD0001831206888421FD09A49303120688842F5
:100BE0001AD0984948312068884215D0954900E0CC
:100BF00020E06031206888420ED092497831206828
:100C0000884209D08F4990312068884204D08D49AC
:100C1000A8312068884206D12068006820F00100D1
:100C20002168086009E12068006820F0010021685F
:100C3000086002E12068006820F00E00216808606A
:100C40007F492068884249D07D4918312068884210
:100C500044D07B493031206888423FD078494831C0
:100C6000206888423AD0764960312068884235D081
:100C7000734978312068884230D0714990312068BA
:100C800088422BD06E49A8312068884226D06D4911
:100C90002068884222D06B491831206888421DD0D4
:100CA000684930312068884218D066494831206848
:100CB000884213D063496031206888420ED0614970
:100CC00078312068884209D05E4990312068884296
:100CD00004D05C49A8312068884206D120680068A9
:100CE00020F001002168086005E02068006820F01D
:100CF00001002168086052492068884270D050493C
:100D00001831206888426BD04D49303120688842C4
:100D100066D04B4948312068884261D048496031EB
:100D2000206888425CD0464978312068884257D094
:100D3000434990312068884252D04149A831206807
:100D400088424DD03F492068884249D03D491831FA
:100D50002068884244D03B493031206888423FD0E7
:100D600038494831206888423AD036496031206895
:100D7000884235D0334978312068884230D03149B3
:100D80009031206888422BD02E49A83120688842B3
:100D900026D02D492068884222D02B491431206862
:100DA00088421DD0284928312068884218D0264919
:100DB0003C312068884213D0234950312068884252
:100DC0000ED0214964312068884209D01E4978310B
:100DD0002068884204D01C498C312068884201D1A7
:100DE000012000E00020D8B1206E006820F480705F
:100DF000216E0860A56D94F85C0000F01F010120D1
:100E000088406860D4E919104860E06E40B1E06E37
:100E1000006820F48070E16E0860D4E91C1048601E
:100E2000012084F8350000BF002084F8340000BFA2
:100E3000206D10B12046216D884700203EE600005D
:100E40001000024010040240085402580146486D48
:100E5000704700002DE9F84F044600200090FE483E
:100E600000684FF41651B0FBF1FAA66DA76DD6F8E5
:100E70000080D7F80090F9492068884249D0F749A6
:100E800018312068884244D0F449303120688842C3
:100E90003FD0F2494831206888423AD0EF4960316A
:100EA0002068884235D0ED4978312068884230D0BA
:100EB000EA499031206888422BD0E849A83120685F
:100EC000884226D0E6492068884222D0E449183179
:100ED000206888421DD0E24930312068884218D00D
:100EE000DF4948312068884213D0DD4960312068ED
:100EF00088420ED0DA4978312068884209D0D84932
:100F000090312068884204D0D549A83120688842B1
:100F100001D1012000E0002000287DD094F85C0081
:100F200000F01F010820884000EA0800002868D06F
:100F3000CA492068884249D0C84918312068884287
:100F400044D0C6493031206888423FD0C349483137
:100F5000206888423AD0C14960312068884235D043
:100F6000BE4978312068884230D0BC499031206831
:100F700088422BD0B949A8312068884226D0B84988
:100F80002068884222D0B6491831206888421DD096
:100F9000B34930312068884218D0B14948312068BF
:100FA000884213D0AE496031206888420ED0AC49E7
:100FB00078312068884209D0A94990312068884258
:100FC00004D0A749A8312068884204D1206800686D
:100FD00000F0040003E02068006800F0080080B121
:100FE0002068006820F004002168086094F85C0024
:100FF00000F01F0108208840B060606D40F00100E3
:10100000606594F85C0000F01F011020884000EA41
:10101000080000286FD000E0E2E190492068884293
:1010200049D08E4918312068884244D08B493031EC
:10103000206888423FD089494831206888423AD0A8
:10104000864960312068884235D0844978312068EB
:10105000884230D081499031206888422BD07F4926
:10106000A8312068884226D07D492068884222D055
:101070007B491831206888421DD079493031206879
:10108000884218D0764948312068884213D0744984
:101090006031206888420ED07149783120688842DA
:1010A00009D06F4990312068884204D06C49A8313A
:1010B0002068884204D12068006800F0080003E03E
:1010C0002068006800F00400A8B194F85C0000F00B
:1010D0001F0110208840B0602068006800F4802064
:1010E00080B12068006800F4002028B9206C10B19D
:1010F0002046216C884715E0A06C98B12046A16C71
:1011000088470FE02068006800F4807028B92068E4
:10111000006820F0080021680860206C10B12046AB
:10112000216C884794F85C0000F01F012020884063
:1011300000EA080000287DD048492068884249D04C
:10114000464918312068884244D0444930312068EB
:1011500088423FD041494831206888423AD03F49CF
:1011600060312068884235D03C4978312068884217
:1011700030D03A499031206888422BD03749A83185
:101180002068884226D036492068884222D03449D7
:101190001831206888421DD031493031206888429A
:1011A00018D02F4948312068884213D02C4960312B
:1011B000206888420ED02A4978312068884209D0B8
:1011C000274990312068884204D02549A8312068F9
:1011D000884204D12068006800F0100003E0206815
:1011E000006800F0020028B394F85C0000F01F01D2
:1011F00020208840B06094F83500042834D120685D
:10120000006820F01600216808602068406920F01E
:10121000800021684861206C08B9A06C28B1206862
:10122000006820F008002168086094F85C0000F075
:101230001F0100E046E03F208840B060012084F8B4
:10124000350000BF002084F8340000BF206D10B1CD
:101250002046216D884705E0300000241000024040
:1012600010040240BDE8F88F2068006800F4802078
:1012700080B12068006800F4002028B9606C08B3D1
:101280002046616C88471DE0E06BD8B12046E16BD9
:10129000884717E02068006800F4807068B920680B
:1012A000006820F0100021680860012084F83500F3
:1012B00000BF002084F8340000BFE06B10B120466E
:1012C000E16B8847606D00287AD0606D00F0010006
:1012D000F0B3042084F83500FE49206888424BD0E2
:1012E000FC4918312068884246D0FA4930312068DC
:1012F000884241D0F7494831206888423CD0F549BE
:1013000060312068884237D0F249783120688842BD
:1013100032D0F0499031206888422DD0ED49A83173
:101320002068884228D0EC492068884224D0EA49C5
:101330001831206888421FD0E74930312068884240
:101340001AD0E54948312068884215D0E24900E0CA
:101350003FE06031206888420ED0DF497831206854
:10136000884209D0DC4990312068884204D0DA49AB
:10137000A8312068884206D12068006820F001006A
:101380002168086005E02068006820F001002168FD
:10139000086000BF0098401C0090504500D905E04F
:1013A0002068006800F001000028F3D100BF206829
:1013B000006800F0010020B1032084F8350003E04C
:1013C0000DE0012084F8350000BF002084F83400CF
:1013D00000BFE06C002802D02046E16C8847D8E1CD
:1013E000BE492068884222D0BC4914312068884216
:1013F0001DD0BA4928312068884218D0B7493C31FD
:101400002068884213D0B5495031206888420ED0F8
:10141000B24964312068884209D0B04978312068E7
:10142000884204D0AD498C312068884201D1012026
:1014300000E000200028D2D02068056894F85C0005
:1014400000F01F010420884000EA0900F0B305F015
:101450000400D8B394F85C0000F01F010420884019
:10146000786005F4004080B105F4803030B9A06C9C
:101470000028B4D02046A16C88478AE1206C00285F
:10148000ADD02046216C884783E105F02000E8BB01
:101490009049206888424DD08E4918312068884292
:1014A00048D08C4930312068884243D0894948313E
:1014B000206888423ED0874960312068884239D010
:1014C000844978312068884234D000E046E0814980
:1014D0009031206888422DD07E49A831206888420A
:1014E00028D07D492068884224D07B491831206863
:1014F00088421FD078493031206888421AD0764916
:1015000048312068884215D0734900E01FE06031FF
:10151000206888420ED0704978312068884209D00E
:101520006D4990312068884204D06B49A831206809
:10153000884206D12068006820F008002168086011
:1015400005E02068006820F0040021680860206C35
:10155000002802D02046216C88471AE194F85C00EC
:1015600000F01F010220884000EA0900F0B305F0F6
:101570000200D8B394F85C0000F01F0102208840FC
:10158000786005F4004078B105F4803030B9606CC3
:10159000002802D02046616C8847FAE0E06B30B347
:1015A0002046E16B8847F4E005F02000F0BB494994
:1015B000206888424ED0474918312068884249D077
:1015C000444930312068884244D04249483120683B
:1015D00088423FD03F496031206888423AD03D4937
:1015E00078312068884235D03A4901E04DE077E013
:1015F0009031206888422DD03649A8312068884231
:1016000028D035492068884224D0334918312068D1
:1016100088421FD030493031206888421AD02E4984
:1016200048312068884215D02B4900E027E060311E
:10163000206888420ED0284978312068884209D035
:10164000254990312068884204D02349A831206878
:10165000884206D12068006820F0140021680860E4
:1016600005E02068006820F00A0021680860012079
:1016700084F8350000BF002084F8340000BFE06B20
:1016800070B32046E16B884783E094F85C0000F07B
:101690001F010820884000EA090008B305F008008F
:1016A000F0B10C492068884251D00A4918312068AD
:1016B00088424CD0074930312068884247D00549DC
:1016C00048312068884242D002496031206888420F
:1016D0003DD006E0100002401004024008540258B9
:1016E00057E02D4978312068884230D02A4990311E
:1016F000206888422BD02849A8312068884226D00B
:1017000026492068884222D024491831206888421E
:101710001DD0224930312068884218D01F494831F5
:101720002068884213D01D496031206888420ED05D
:101730001A4978312068884209D0184990312068C8
:10174000884204D01549A8312068884206D1206813
:10175000006820F01C002168086005E0206800682F
:1017600020F00E002168086094F85C0000F01F0172
:101770000120884078600120606584F8350000BF52
:10178000002084F8340000BFE06C10B12046E16C0A
:10179000884700BF5FE500001000024010040240CF
:1017A0002DE9F041044600F07FFD804614B9012088
:1017B000BDE8F081FE492068884249D0FC491831D3
:1017C0002068884244D0FA493031206888423FD0AE
:1017D000F7494831206888423AD0F549603120689D
:1017E000884235D0F24978312068884230D0F049BB
:1017F0009031206888422BD0ED49A831206888427A
:1018000026D0EC492068884222D0EA491831206865
:1018100088421DD0E74930312068884218D0E54918
:1018200048312068884213D0E249603120688842FC
:101830000ED0E04978312068884209D0DD499031E6
:101840002068884204D0DB49A8312068884201D151
:10185000012000E00020002870D0022084F835002C
:1018600000BF002084F8340000BFD14920688842BE
:1018700049D0CF4918312068884244D0CC49303112
:10188000206888423FD0CA494831206888423AD00F
:10189000C74960312068884235D0C5497831206811
:1018A000884230D0C2499031206888422BD0C0494C
:1018B000A8312068884226D0BE492068884222D0BC
:1018C000BC491831206888421DD0BA49303120689F
:1018D000884218D0B74948312068884213D0B549AA
:1018E0006031206888420ED0B24978312068884241
:1018F00009D0B04990312068884204D0AD49A83160
:101900002068884206D12068006820F00100216824
:10191000086005E02068006820F001002168086088
:101920000DE000F0C1FCA0EB0800052807D920203D
:101930006065032084F83500012039E76AE02068FB
:10194000006800F001000028EBD1206805689A4883
:101950000540D4E90201084321690843616908434D
:10196000A1690843E1690843216A08430543606AA5
:10197000042803D1D4E90B01084305438F480068CC
:101980006FF30F00B0F1005F1DD36068292802D308
:1019900060682E2811D960683F2802D36068422809
:1019A0000BD96068472802D36068482805D9606869
:1019B0004F2804D36068522801D8012000E000209D
:1019C00008B145F48015206805602068456925F058
:1019D0000705606A0543606A04280DD1A06A0543C3
:1019E000E06A48B12046FEF78DFE28B140206065D0
:1019F000012084F83500DBE6206845612046FEF7CB
:101A00005DFD074694F85C0000F01F013F20884010
:101A1000B8609EE06A492068884222D06849143143
:101A2000206888421DD0664928312068884218D035
:101A300063493C312068884213D0614950312068A5
:101A400088420ED05E4964312068884209D05C49E2
:101A500078312068884204D059498C312068884206
:101A600001D1012000E00020E0B355492068884200
:101A700022D053491431206888421DD05049283162
:101A80002068884218D04E493C312068884213D0E3
:101A90004B495031206888420ED049496431206852
:101AA000884209D0464978312068884204D04449A8
:101AB0008C312068884201D1012000E0002000B173
:101AC00000BF022084F8350000BF002084F83400F5
:101AD00000BF206805683B480540A068402802D147
:101AE000102106E02EE0A068802801D1C10100E0AD
:101AF0000021E06841EAD001206941EAD001606933
:101B000041EAD001A06941EAD001E06941EAD0018F
:101B1000206A41EA101005432068056028492068C2
:101B2000401A1421B0FBF1F08000E0652046FEF77A
:101B3000C5FC064694F85C0000F01F0101208840B7
:101B4000706006E040206065032084F835000120C5
:101B50002EE61749206888427CD015491831206844
:101B6000884277D0124930312068884272D01049BB
:101B70004831206888426DD00D4960312068884224
:101B800068D00B4978312068884263D00849903189
:101B9000206888425ED00649A8312068884259D022
:101BA00004492068884255D00249183120680BE06A
:101BB00010000240100402403F8010FE0010005C44
:101BC000085402580F00FEFF884243D0374920686E
:101BD00088423FD035491831206888423AD033498D
:101BE00030312068884235D03049483120688842F9
:101BF00030D02E496031206888422BD02B49783173
:101C00002068884226D02A492068884222D0284964
:101C10001431206888421DD0254928312068884227
:101C200018D023493C312068884213D020495031D4
:101C3000206888420ED01E4964312068884209D04D
:101C40001B4978312068884204D019498C312068BA
:101C5000884201D1012000E0002000B32046FEF7B9
:101C6000A3FCA068802801D1002060602079216E4B
:101C70000860D4E919104860606860B1606808289D
:101C800009D82046FEF7F2FC0020E16E0860D4E996
:101C90001C10486003E00020E066206760670020B9
:101CA0006065012084F83500002081E54004024091
:101CB000085402582DE9F04104460D4616461F46C9
:101CC0004FF0000814B90120BDE8F08100BF94F87E
:101CD0003400012801D10220F6E7012084F8340005
:101CE00000BF94F8350001287ED1022084F8350029
:101CF00000206065E4492068884249D0E2491831F3
:101D00002068884244D0E0493031206888423FD082
:101D1000DD494831206888423AD0DB49603120688B
:101D2000884235D0D84978312068884230D0D649A9
:101D30009031206888422BD0D349A831206888424E
:101D400026D0D2492068884222D0D0491831206854
:101D500088421DD0CD4930312068884218D0CB4907
:101D600048312068884213D0C849603120688842D1
:101D70000ED0C64978312068884209D0C3499031D5
:101D80002068884204D0C149A8312068884206D121
:101D90002068006820F001002168086005E02068E4
:101DA000006820F00100216808603B463246294661
:101DB0002046FEF741FDB449206888424BD0B24925
:101DC00018312068884246D0AF49303120688842B7
:101DD00041D0AD494831206888423CD0AA496031A1
:101DE0002068884237D000E042E1A7497831206876
:101DF000884230D0A4499031206888422BD0A24933
:101E0000A8312068884226D0A0492068884222D084
:101E10009E491831206888421DD09C493031206885
:101E2000884218D0994948312068884213D0974990
:101E30006031206888420ED0944978312068884209
:101E400009D0924990312068884204D08F49A83146
:101E50002068884201D1012000E0002080B1206884
:101E6000006820F01E0040F0160021680860206C19
:101E7000B0B12068006840F00800216808600FE0F9
:101E80002068006820F00E0040F00A002168086019
:101E9000206C28B12068006840F0040021680860C8
:101EA00079492068884270D0774918312068884283
:101EB0006BD0754930312068884266D0724948310C
:101EC0002068884261D070496031206888425CD0C7
:101ED0006D4978312068884257D06B49903120682D
:101EE000884252D06849A831206888424DD067495D
:101EF0002068884249D0654918312068884244D01A
:101F000062493031206888423FD0604948312068BA
:101F100088423AD05D4960312068884235D05B49BB
:101F200078312068884230D0584990312068884202
:101F30002BD05649A8312068884226D054492068C1
:101F4000884222D052491431206888421DD050491D
:101F500028312068884218D04D493C312068884299
:101F600013D04B495031206888420ED04849643123
:101F70002068884209D0464978312068884204D0D8
:101F800043498C312068884201D1012000E00020C3
:101F900090B1206E006800F4803028B1206E006897
:101FA00040F48070216E0860E06E28B1E06E006839
:101FB00040F48070E16E086033492068884249D05F
:101FC000314918312068884244D02F493031206887
:101FD00088423FD02C494831206888423AD02A496B
:101FE00060312068884235D027497831206888429E
:101FF00030D025499031206888422BD02249A83121
:102000002068884226D021492068884222D01F4972
:102010001831206888421DD01C4930312068884220
:1020200018D01A4948312068884213D017496031C6
:10203000206888420ED0154978312068884209D03E
:10204000124990312068884204D01049A831206894
:10205000884206D12068006840F0010021680860CD
:1020600010E02068006840F001002168086009E085
:102070004FF40060606500BF002084F8340000BFAA
:102080004FF0010840461FE61000024010040240D5
:1020900008540258F8B502460B4600216F4DD7E0B0
:1020A00001278F401E6806EA0704002C72D01E79B3
:1020B00006F00306012E04D01E7906F00306022E58
:1020C00013D190684F000326BE40B0434F00DE6836
:1020D000BE4030439060506801268E40B0431E7968
:1020E000C6F300168E40304350601E7906F003069A
:1020F000032E09D0D0684F000326BE40B0434F00E6
:102100009E68BE403043D0601E7906F00306022E62
:1021100013D1CF0802F1200656F827004E07F70E1C
:102120000F26BE40B0434F07FF0E1E69BE4030432E
:10213000CF0802F1200646F8270010684F0003265A
:10214000BE40B0431E7906F003064F00BE40304348
:1021500010605E6806F44036002E78D000BF404E16
:10216000366846F002063E4F3E603E46366806F050
:102170000206009600BF00BF3A4E8F0856F82700AF
:102180008E07370F0F26BE40B043374EB24202D102
:1021900000262EE05BE0354EB24201D1012628E058
:1021A000334EB24201D1022623E0324EB24201D177
:1021B00003261EE0304EB24201D1042619E02F4E14
:1021C000B24201D1052614E02D4EB24201D10626BD
:1021D0000FE02C4EB24201D107260AE02A4EB2424D
:1021E00001D1082605E0294EB24201D1092600E0BE
:1021F0000A268F073F0FBE4030431A4E8F0846F81D
:1022000027004FF0B0463068A0435E6806F48016A1
:1022100006B120434FF0B04630607068A0435E685E
:1022200006F4001606B120434FF0B04670606868AF
:10223000A0435E6806F4003606B120436860286853
:10224000A0435E6806F4803606B120432860491C2E
:102250001E68CE40002E7FF423AFF8BD80000058EA
:10226000F4440258080400580000025800040258C0
:1022700000080258000C02580010025800140258BE
:1022800000180258001C025800200258002402586E
:102290000AB1816101E00B04836170470148006865
:1022A000000C70470010005C014800687047000097
:1022B00024000024034800680349097808440149C0
:1022C00008607047240000242C00002410B503206F
:1022D00000F0BCF801F040F810490968C1F303218F
:1022E0000F4A515C01F01F0120FA01F40B4800680D
:1022F00000F00F001146085C00F01F0024FA00F007
:1023000008490860084804600F2000F00FF808B181
:10231000012010BD00F036F80020FAE718440258FA
:10232000E4560008340000243000002470B5044650
:102330001148007808B9012070BD0F4800784FF4AB
:102340007A71B1FBF0F00D490968B1FBF0F5284650
:1023500002F0F3F808B10120EEE7102C07D20022BA
:102360002146501E00F034F80548046001E00120C9
:10237000E2E70020E0E700002C0000243000002409
:102380002800002408B500BF0648006840F002009D
:10239000044908600846006800F00200009000BF91
:1023A00000BF08BDF44402580146084600280DDB72
:1023B00000BF00BF00F01F0301229A4043099B00A9
:1023C00003F1E023C3F8002100BF00BF00BF704746
:1023D0002DE9F05F80460D46164602F02BFD0746BC
:1023E00039462A46334601F00700C0F1070ABAF120
:1023F000040F02D94FF0040A01E0C0F1070AD146E8
:1024000000F1040ABAF1070F02D24FF0000A01E00E
:10241000A0F1030AD4464FF0010A0AFA09FAAAF118
:10242000010A0AEA020A0AFA0CFA4FF0010B0BFA47
:102430000CFBABF1010B0BEA030B4AEA0B04214640
:10244000404602F0FFFCBDE8F09F000000BF00F036
:102450000702064B19684FF6FF031940044B0B4364
:1024600043EA0221014B196000BF70470CED00E008
:102470000000FA0570B5044615480068C0F38000F6
:1024800048B91348006800F00700A04201D00120BD
:1024900070BD0020FCE70E48006820F007002043D4
:1024A0000B490860FFF700FF054607E0FFF7FCFE59
:1024B000401BB0F57A7F01D90120E9E704480838CC
:1024C0000068C0F340300028F0D00020E0E70000B2
:1024D0000C4802582DE9F04104460025A846206822
:1024E00000F00060B0F1006F30D1606E48B1B0F51F
:1024F000801F0DD0B0F5001F10D0B0F5401F15D1D2
:1025000013E0F948006840F40030F74908600FE034
:102510000221201D02F0F6F8054609E0022104F12F
:10252000240002F0A1F9054602E001E0012500BF08
:1025300000BF55B9EC482430006820F44010616EAB
:102540000843E9492431086000E0A846208800F4E7
:102550008070B0F5807F2DD1606D05281AD2DFE83C
:1025600000F0030A10171800DF48006840F400303C
:10257000DD49086010E00021201D02F0C3F8054687
:102580000AE0002104F1240002F06EF9054603E0A0
:1025900002E001E0012500BF00BF55B9D248243058
:1025A000006820F00700616D0843CF4924310860BE
:1025B00000E0A846208800F40070B0F5007F33D119
:1025C000A06D802817D003DC40B140281CD10CE05E
:1025D000C02817D0B0F5807F16D114E0C24800683B
:1025E00040F40030C049086010E00021201D02F0D6
:1025F00089F805460AE0002104F1240002F034F9CC
:10260000054603E002E001E0012500BF00BF55B927
:10261000B5482430006820F4E070A16D0843B24949
:102620002431086000E0A846208800F48060B0F5FE
:10263000806F38D1D4F8A400B0F5800F19D004DC35
:1026400050B1B0F5001F1DD10DE0B0F5C00F17D08F
:10265000B0F5000F16D114E0A348006840F4003034
:10266000A149086010E00021201D02F04BF805464A
:102670000AE0002104F1240002F0F6F8054603E028
:1026800002E001E0012500BF00BF5DB996482C3093
:10269000006820F46000D4F8A410084392492C315B
:1026A000086000E0A846208800F40060B0F5006FE4
:1026B00038D1D4F8A800B0F1007F19D004DC50B1B3
:1026C000B0F1807F1DD10DE0B0F1407F17D0B0F1A7
:1026D000806F16D114E08448006840F400308249CD
:1026E000086010E00021201D02F00CF805460AE009
:1026F000002104F1240002F0B7F8054603E002E0EF
:1027000001E0012500BF00BF5DB977482C300068AB
:1027100020F0E060D4F8A810084373492C31086019
:1027200000E0A846206800F00070B0F1007F27D1DB
:10273000A06CA0B1102804D0202809D030280FD1D7
:102740000CE06948006840F400306749086009E01F
:102750000221201D01F0D6FF054603E002E001E062
:10276000012500BF00BF55B95F482030006820F048
:102770003000A16C08435C492031086000E0A846A5
:10278000208800F48050B0F5805F36D1E06DB0F560
:10279000005F19D004DC50B1B0F5805F1DD10DE0B1
:1027A000B0F5405F17D0B0F5804F16D114E04E4819
:1027B000006840F400304C49086010E00021201D02
:1027C00001F0A0FF05460AE0002104F1240002F018
:1027D0004BF8054603E002E001E0012500BF00BF21
:1027E00055B941482430006820F4E040E16D0843C9
:1027F0003D492431086000E0A846208800F40050DC
:10280000B0F5005F34D1206EB0F5403F1DD007DC3D
:1028100068B1B0F5803F0BD0B0F5003F18D10DE0A6
:10282000B0F5802F12D0B0F5A02F11D10FE011E03C
:102830000121201D01F066FF05460BE0012104F196
:10284000240002F011F8054604E003E002E001E094
:10285000012500BF00BF55B923482430006820F48B
:10286000E020216E084320492431086000E0A8469A
:10287000208800F48040B0F5804F38D1D4F8AC0007
:10288000B0F1405F1DD007DC68B1B0F1805F0BD0C4
:10289000B0F1005F18D10DE0B0F1804F12D0B0F16F
:1028A000A04F11D10FE011E00121201D01F02AFFFE
:1028B00005460BE0012104F1240001F0D5FF054697
:1028C00004E003E002E001E0012500BF00BF6DB9B4
:1028D00005482C30006820F0E040D4F8AC100843E4
:1028E00001492C31086002E02C440258A846208897
:1028F00000F40040B0F5004F26D1E06E98B1B0F181
:10290000805F03D0B0F1005F0ED106E0F9480068A7
:1029100040F40030F749086008E00121201D01F073
:10292000F1FE054602E001E0012500BF00BF55B9F8
:10293000F0482430006820F04050E16E0843ED4933
:102940002431086000E0A846206800F08070B0F1F3
:10295000807F27D1606CA0B1012804D0022809D063
:1029600003280FD10CE0E348006840F40030E1494F
:10297000086009E00221201D01F0C4FE054603E0C5
:1029800002E001E0012500BF00BF55B9D948203061
:10299000006820F00300616C0843D64920310860CC
:1029A00000E0A846206800F48000B0F5800F7DD1DB
:1029B000D148006840F48070CF490860FFF774FC8C
:1029C000064606E0FFF770FC801B642801D903254A
:1029D00005E0C948006800F480700028F2D000BF0C
:1029E00085BBC4484430006800F44070B4F8B010AF
:1029F00001F44071884213D0BE484430006820F48E
:102A00004077BC484430006840F48030B9494431D4
:102A100008600846006820F48030086008460760B7
:102A2000D4F8B000B0F5807F15D1FFF73DFC064625
:102A300009E0FFF739FC801B41F28831884202D956
:102A4000032507E038E0AB4844300068C0F340009D
:102A50000028EED000BF55BB00BFB4F8B00000F4B2
:102A60004070B0F5407F0ED1A2481C38006820F4B9
:102A70007C51A24AD4F8B000104041EA10109D49A0
:102A80001C39086007E09B481C38006820F47C5023
:102A900098491C390860974844300068B4F8B01071
:102AA000C1F30B0108439349443101E005E001E023
:102AB000086002E0A84600E0A846207800F0010087
:102AC00068B3A06F182819D005DC48B1082808D0D1
:102AD000102816D10BE0202811D0282811D10FE0A2
:102AE00011E00121201D01F00DFE05460BE0012142
:102AF00004F1240001F0B8FE054604E003E002E022
:102B000001E0012500BF00BF55B97A4828300068B0
:102B100020F03800A16F084376492831086000E0B2
:102B2000A846207800F00200022828D1606F06280D
:102B300015D2DFE800F003040A11121311E001219D
:102B4000201D01F0DFFD05460BE0012104F124000A
:102B500001F08AFE054604E003E002E001E0012501
:102B600000BF00BF55B963482830006820F0070057
:102B7000616F08435F492831086000E0A84620786B
:102B800000F0040004282AD1D4F89000062815D2B9
:102B9000DFE800F003040A11121311E00121201DE7
:102BA00001F0B0FD05460BE0012104F1240001F025
:102BB0005BFE054604E003E002E001E0012500BF02
:102BC00000BF5DB94B482C30006820F00700D4F8F6
:102BD0009010084347492C31086000E0A84620784F
:102BE00000F02000202836D1D4F88C00B0F1405FEE
:102BF0001DD007DC68B1B0F1805F0BD0B0F1005F91
:102C000018D10DE0B0F1804F12D0B0F1A04F11D12A
:102C10000FE011E00021201D01F074FD05460BE0DE
:102C2000022104F1240001F01FFE054604E003E048
:102C300002E001E0012500BF00BF5DB92D4828304A
:102C4000006820F0E040D4F88C100843294928316E
:102C5000086000E0A846207800F04000402836D107
:102C6000D4F89800B0F5406F1DD007DC68B1B0F51E
:102C7000806F0BD0B0F5006F18D10DE0B0F5805F1C
:102C800012D0B0F5A05F11D10FE011E00021201D9E
:102C900001F038FD05460BE0022104F1240001F0AB
:102CA000E3FD054604E003E002E001E0012500BF8A
:102CB00000BF5DB90F482C30006820F4E050D4F814
:102CC000981008430B492C31086000E0A846207892
:102CD00000F0800080283AD1D4F89C00B0F5C04FB5
:102CE00023D00DDC98B1B0F5005F11D0B0F5804F66
:102CF0001ED113E02C44025800480258FFFCFF0F7D
:102D0000B0F5004F12D0B0F5204F11D10FE011E017
:102D10000021201D01F0F6FC05460BE0022104F124
:102D2000240001F0A1FD054604E003E002E001E01B
:102D3000012500BF00BF4DB9BE48006820F46040C7
:102D4000D4F89C100843BB49086000E0A8462078EE
:102D500000F00800082817D1D4F88000B0F5805F93
:102D600007D1022104F1240001F07EFD08B14FF0EB
:102D70000108B048001F006820F44050D4F88010CB
:102D80000843AC49091F0860207800F010001028A3
:102D900015D1D4F89400B0F5807F07D1022104F159
:102DA000240001F061FD08B14FF00108A14800685E
:102DB00020F44070D4F8941008439E4908602068BD
:102DC00000F40020B0F5002F26D1D4F8A00030B1D7
:102DD000B0F5803F09D0B0F5003F0ED10CE00021E6
:102DE000201D01F08FFC054609E0022104F12400BA
:102DF00001F03AFD054602E001E0012500BF00BFF9
:102E00004DB98C48006820F44030D4F8A010084335
:102E10008849086000E0A846206800F48020B0F5EA
:102E2000802F2DD1D4F88400B0F5801F06D0B0F5E6
:102E3000001F0CD0B0F5401F11D10FE07D482C3899
:102E4000006840F400307B492C39086009E001211A
:102E500004F1240001F008FD054602E001E001252F
:102E600000BF00BF5DB97348001F006820F4401028
:102E7000D4F8841008436F49091F086000E0A84691
:102E8000206800F48030B0F5803F24D1E06C18B1A8
:102E9000B0F5803F0FD108E066482C38006840F458
:102EA000003064492C39086007E00221201D01F040
:102EB00029FC054601E0012500BF00BF55B95D486A
:102EC0000C38006820F48030E16C084359490C3913
:102ED000086000E0A846206800F00050B0F1005FF4
:102EE00007D1022104F1240001F0BEFC08B14FF02B
:102EF0000108206800F40030B0F5003F27D1E06FF2
:102F0000A0B1B0F5807F06D0B0F5007F0CD0B0F551
:102F1000407F0CD109E047482C38006840F400306D
:102F200044492C39086004E003E002E001E0012597
:102F300000BF00BF55B93F48001F006820F4407033
:102F4000E16F08433B49091F086000E0A84620687C
:102F500000F48010B0F5801F09D1364808380068A9
:102F600020F00040216F084332490839086020688A
:102F700000F08050B0F1805F0AD12E4848380068D8
:102F800020F48040D4F8B41008432A494839086036
:102F9000206800F40010B0F5001F09D1254808385A
:102FA000006820F08070A16E08432249083908604B
:102FB000206800F08040B0F1804F11D100BF1D4863
:102FC0004838006820F400401A494839086008462B
:102FD0000068D4F8B810084316494839086000BFA3
:102FE000206800F00040B0F1004F09D111480C38C2
:102FF000006820F04050216D08430E490C390860EC
:10300000206800F40000B0F5000F0AD10948001F45
:10301000006820F44000D4F8881008430549091FCF
:103020000860B8F1000F02D10020BDE8F081012056
:10303000FBE70000584402582DE9F04104460D46D4
:1030400014B90120BDE8F081BD48006800F00F0010
:10305000A8420ED2BA48006820F00F002843B849B1
:1030600008600846006800F00F00A84201D0012067
:10307000E8E7207800F0040004280ED1B149206967
:10308000096801F07001884207D9AE48006820F055
:10309000700021690843AB490860207800F00800FF
:1030A000082811D1A749091D6069096801F070015C
:1030B000884209D9A348001D006820F070006169AA
:1030C0000843A049091D0860207800F0100010286E
:1030D00011D19C49091DA069096801F4E061884289
:1030E00009D99848001D006820F4E060A1690843F0
:1030F0009449091D0860207800F02000202811D193
:1031000090490831E069096801F07001884209D9E5
:103110008C480830006820F07000E1690843894954
:1031200008310860207800F0020002280ED185499D
:10313000E068096801F00F01884207D981480068FA
:1031400020F00F00E16808437E490860207800F015
:103150000100002850D07B48006820F47060A1680E
:103160000843784908606068022807D17548183814
:103170000068C0F34040F8B9012063E760680328A5
:1031800007D1704818380068C0F34060A0B901202A
:1031900058E76068012807D16A4818380068C0F30A
:1031A000002048B901204DE7664818380068C0F390
:1031B000800008B9012045E762480838006820F01F
:1031C0000700616808435F4908390860FFF76CF839
:1031D000064608E0FFF768F8801B41F28831884214
:1031E00001D903202EE757480838006800F038005E
:1031F0006168B0EBC10FEDD1207800F00200022829
:103200000ED15049E068096801F00F01884207D2E9
:103210004C48006820F00F00E16808434949086005
:103220004748006800F00F00A8420ED944480068E3
:1032300020F00F002843424908600846006800F06B
:103240000F00A84201D00120FCE6207800F0040025
:1032500004280ED13B492069096801F070018842B9
:1032600007D23848006820F07000216908433549CA
:103270000860207800F00800082811D13149091DA4
:103280006069096801F07001884209D22D48001D6B
:10329000006820F07000616908432A49091D086030
:1032A000207800F01000102811D12649091DA069CE
:1032B000096801F4E061884209D22248001D0068D3
:1032C00020F4E060A16908431E49091D08602078C8
:1032D00000F02000202811D11A490831E06909685E
:1032E00001F07001884209D216480830006820F0C9
:1032F0007000E169084313490831086000F02CF8B8
:1033000010490968C1F303210F4A515C01F01F0104
:1033100020FA01F70B48006800F00F001146085C26
:1033200000F01F0027FA00F008490860084807600D
:1033300008480068FEF7FAFF8046404682E6000033
:103340000020005218440258E456000834000024BB
:103350003000002428000024F0B5824E366806F0C4
:10336000380636B1082E15D0102E15D0182E7DD166
:1033700014E07C4E103E3668C6F3401646B1794ED6
:10338000103E3668C6F3C107774E26FA07F000E014
:103390007548E5E07548E3E07548E1E0714E1836A0
:1033A000366806F003046F4E18363668C6F305110A
:1033B0006C4E1C36366806F001056A4E24363668B7
:1033C000C6F3CC0616FB05F601EE106AB8EE410A0C
:1033D000002971D024B1012C50D0022C6DD16DE0A8
:1033E000604E103E3668C6F340163EB35D4E103E4A
:1033F0003668C6F3C1075C4E26FA07F301EE103AB1
:10340000F8EE411A01EE101AB8EE411A81EE812A47
:103410009FED581AC0EE011A524E20363668C6F398
:10342000080601EE106AB8EE411A31EE811AF7EE85
:10343000001A31EE211A62EE010A1EE001EE101AA6
:10344000B8EE411ADFED4C1A81EE812A9FED491A40
:10345000C0EE011A434E20363668C6F3080601EE68
:10346000106AB8EE411A31EE811A00E076E0F7EE0C
:10347000001A31EE211A62EE010A5BE001EE101A29
:10348000B8EE411A9FED3D2AC2EE011A9FED391A9E
:1034900080EE012A334E20363668C6F3080601EE68
:1034A000106AB8EE411A32EE011AB7EE002A31EE78
:1034B000021A61EE810A3DE04EE01DE001EE101AB5
:1034C000B8EE411ADFED2E1A81EE812A9FED291AFE
:1034D000C0EE011A234E20363668C6F3080601EE08
:1034E000106AB8EE411A31EE811AF7EE001A31EE89
:1034F000211A62EE010A1DE001EE101AB8EE411A1F
:103500009FED1E2AC2EE011A9FED1A1A80EE012AC3
:10351000144E20363668C6F3080601EE106AB8EE7F
:10352000411A32EE011AB7EE002A31EE021A61EEAC
:10353000810A00BF00BF0B4E20363668C6F3462610
:10354000721C01EE102AB8EE411AC0EE811ABCEED0
:10355000E11A11EE100A00E0002001E0034800BF6C
:1035600000BFF0BD104402580090D00300093D0098
:1035700040787D01000000460024744C0024744A09
:1035800020BCBE4B2DE9F047044614B90120BDE82C
:10359000F087207800F00100002870D0FA48006819
:1035A00000F03808F8481830D0F80090B8F1100F43
:1035B00006D0B8F1180F0FD109F0030002280BD183
:1035C000F14810380068C0F3404000286AD06068B5
:1035D000002867D10120DAE700BF6068B0F5803FBE
:1035E00008D1E9481038006840F48030E6491039C5
:1035F00008602EE0606868B9E3481038006820F47D
:103600008030E149103908600846006820F48020C5
:1036100008601EE06068B0F5A02F0DD1DA481038C0
:10362000006840F48020D8491039086008460068D6
:1036300040F4803008600CE0D3481038006820F473
:103640008030D149103908600846006820F4802095
:10365000086000BF606898B1FEF726FE054606E0E8
:10366000FEF722FE401B642801D903208FE7C648DD
:1036700010380068C0F340400028F1D012E012E09A
:10368000FEF712FE054606E0FEF70EFE401B64281C
:1036900001D903207BE7BC4810380068C0F34040E4
:1036A0000028F1D100BF207800F00200022874D178
:1036B000B548006800F03808B3481830D0F80090DA
:1036C000B8F1000F05D0B8F1180F56D109F003007A
:1036D000D0BBAD4810380068C0F3800018B1E06876
:1036E00008B9012053E7A8481038006820F01900F5
:1036F000E1680843A44910390860FEF7D5FD054686
:1037000006E0FEF7D1FD401B022801D903203EE769
:103710009D4810380068C0F380000028F1D000BF39
:10372000FEF7BCFD41F2030188421AD82069402807
:103730000BD195480C38006820F47C3040F4003000
:1037400091490C39086017E017E08F480C38006881
:1037500020F47C30216940EA01308B490C39086043
:103760000AE089480C38006820F0FE40217C40EADD
:10377000016085490C39086066E0E06888B38248DA
:103780001038006820F01900E16808437E491039BC
:103790000860FEF789FD054607E056E0FEF784FD68
:1037A000401B022801D90320F1E677481038006851
:1037B000C0F380000028F1D000BFFEF76FFD41F29A
:1037C000030188421AD8206940280BD16E480C3872
:1037D000006820F47C3040F400306B490C390860FC
:1037E00017E017E068480C38006820F47C30216945
:1037F00040EA013064490C3908600AE062480C383C
:10380000006820F0FE40217C40EA01605E490C39EE
:10381000086019E05C481038006820F001005A493F
:1038200010390860FEF740FD054606E0FEF73CFD56
:10383000401B022801D90320A9E65348103800682C
:10384000C0F380000028F1D100BF207800F0100004
:1038500010287CD14C48006800F038084A481830DD
:10386000D0F80090B8F1080F06D0B8F1180F3DD18C
:1038700009F00300012839D1434810380068C0F32B
:10388000002020B1E069802801D001207FE600BF40
:10389000FEF704FD41F2030188421AD8206A20286D
:1038A0000AD139480C38006820F0F84040F08040D8
:1038B00035490C39086018E033480C38006820F0AE
:1038C000F84094F8201040EA81602F490C390860D4
:1038D0000BE02D48001F006820F07C5094F8201069
:1038E00040EA01602849091F086066E0E06978B392
:1038F00025481038006840F08000234910390860DE
:10390000FEF7D2FC054606E0FEF7CEFC401B02287F
:1039100001D903203BE61C4810380068C0F30020A2
:103920000028F1D000BFFEF7B9FC41F20301884244
:103930001CD8206A20280CD113480C38006820F0CD
:10394000F84040F0804010490C3908601AE035E03A
:103950001CE00D480C38006820F0F84094F8201066
:1039600040EA816008490C3908600BE00648001FF6
:10397000006820F07C5094F8201040EA0160024971
:10398000091F086019E0000010440258FA48006856
:1039900020F08000F8490860FEF786FC054606E046
:1039A000FEF782FC401B022801D90320EFE5F24814
:1039B0000068C0F300200028F2D100BF207800F09A
:1039C0000800082836D16069D0B1EB48743000682F
:1039D00040F00100E84974310860FEF765FC0546D7
:1039E00006E0FEF761FC401B022801D90320CEE56A
:1039F000E14874300068C0F340000028F1D019E0BD
:103A0000DD487430006820F00100DB497431086043
:103A1000FEF74AFC054606E0FEF746FC401B02287E
:103A200001D90320B3E5D44874300068C0F34000E6
:103A30000028F1D1207800F02000202830D1A069A2
:103A4000B8B1CD48006840F48050CB490860FEF71B
:103A50002BFC054606E0FEF727FC401B022801D997
:103A6000032094E5C4480068C0F340300028F2D039
:103A700016E0C148006820F48050BF490860FEF796
:103A800013FC054606E0FEF70FFC401B022801D997
:103A900003207CE5B8480068C0F340300028F2D12C
:103AA000207800F0040004287DD1B448006840F478
:103AB0008070B2490860FEF7F7FB054606E0FEF7A6
:103AC000F3FB401B642801D9032060E5AB48006884
:103AD00000F480700028F2D000BFA068012808D14F
:103AE000A5487030006840F00100A34970310860BB
:103AF0002DE0A06868B9A0487030006820F001008F
:103B00009D49703108600846006820F00400086094
:103B10001DE0A06805280DD197487030006840F07E
:103B200004009549703108600846006840F00100C3
:103B300008600CE090487030006820F001008E4969
:103B4000703108600846006820F00400086000BF7B
:103B5000A068A0B1FEF7A8FB054608E0FEF7A4FBAD
:103B6000401B41F28831884201D903200FE5824889
:103B700070300068C0F340000028EFD013E0FEF77B
:103B800093FB054608E0FEF78FFB401B41F28831AE
:103B9000884201D90320FAE4774870300068C0F306
:103BA00040000028EFD1606A00287DD072481030B4
:103BB000006800F03800182877D0606A022875D1B4
:103BC0006D48006820F080706B490860FEF76CFB60
:103BD000054606E0FEF768FB401B022801D90320DA
:103BE000D5E465480068C0F340600028F2D100BF0A
:103BF000D4E90A1041EA00105F492831096840F20F
:103C0000F332914308435C4928310860208E401EFE
:103C1000C0F30800616B491E4FF47E4202EA412165
:103C20000843218F491ED20102EA014108433C2189
:103C3000095D491E120202EA016108434E49303112
:103C4000086000BF081F006820F00100091F08601D
:103C50004948343000684FF6F8718843A16C40EA57
:103C6000C10045493431086043482C30006820F0D9
:103C70000C00216C084340492C310860084600685C
:103C800020F00200616C08433B492C310860084673
:103C9000006840F4803008600846006840F4003056
:103CA00008600846006802E06AE038E01FE040F47F
:103CB000802008600846006840F0010008602E4837
:103CC000006840F080702C490860FEF7EDFA054668
:103CD00006E0FEF7E9FA401B022801D9032056E46A
:103CE00025480068C0F340600028F2D048E0224830
:103CF000006820F0807020490860FEF7D5FA05467C
:103D000006E0FEF7D1FA401B022801D903203EE469
:103D100019480068C0F340600028F2D130E016482E
:103D200028300768144830300668606A012821D0BE
:103D300007F00301A06A81421CD1C7F30511E06AB4
:103D4000884217D1C6F30801206B401E814211D171
:103D5000606B401EC6F3462188420BD1A06B401E0B
:103D6000C6F30641884205D1E06B401EC6F30661EA
:103D7000884205D001200AE4004402580048025855
:103D8000002004E4704700002DE9F05F044620683D
:103D900007692068D0F8148007EA08052068D0F881
:103DA00008904FF0000A94F88160206800F1300B11
:103DB00005F0400070B905F0200058B905F0040086
:103DC000042807D12046616F88472046216F884725
:103DD0004FF0010A05F0400050B905F0010038B17C
:103DE00005F0040020B92046216F88474FF0010AF2
:103DF00005F0200058B905F00200022807D105F0AF
:103E0000040020B92046616F88474FF0010ABAF1DB
:103E1000000F01D0BDE8F09F05F00800082863D12D
:103E20002068806940F00800216888612068806906
:103E300040F01000216888612068806940F40060CB
:103E4000216888612068006920F008002168086105
:103E50002068806800F4404038BB22E0E0680F280A
:103E600007D92068006B616E0860606E001D606697
:103E700012E0E068072807D9BBF80000616E0880EF
:103E8000606E801C606607E0206890F83000616E0C
:103E90000870606E401C6066B4F86A00401EA4F8AA
:103EA0006A00B4F86A000028D8D1204600F0D0FD9E
:103EB000012084F88100D4F8840018B12046FFF76F
:103EC00061FFA7E7052E03D1204600F0A9FA0AE01A
:103ED000042E03D1204600F0A9F904E0032E02D1FC
:103EE000204600F09BFA95E708F40060B0F5006FFB
:103EF0000AD107F00800082806D12068806940F43C
:103F000000602168886185E705F4587000287DD03D
:103F100005F0400058B1D4F8840040F00400C4F823
:103F200084002068806940F040002168886105F4C1
:103F3000007058B1D4F8840040F00100C4F8840047
:103F40002068806940F400702168886105F4807001
:103F500058B1D4F8840040F00800C4F88400206808
:103F6000806940F480702168886105F0200058B1B4
:103F7000D4F8840040F08000C4F884002068806990
:103F800040F0200021688861D4F88400A8B320683C
:103F9000006820F00100216808602068006940F294
:103FA0006B3188432168086109F44040B0F5404F07
:103FB00025D12068806820F4404021688860E06F47
:103FC00060B11348E16F0865E06FFCF773FD28B13D
:103FD000D4F8840040F04000C4F88400A06F60B1C1
:103FE0000B48A16F0865A06FFCF764FD28B1D4F8F9
:103FF000840040F04000C4F8840006E006E00120A0
:1040000084F881002046FFF7BDFE03E700BF01E70B
:10401000274B000870B504460CB9012070BD002183
:10402000A16294F8810028B9002084F8800020461D
:1040300000F074F8022084F881002068006820F005
:104040000100216808602068806800F4F815A06904
:10405000B0F1806F11D16068B0F5800F01D1A06B15
:1040600028B1606848B9A06BB0F1805F05D12068C5
:10407000006840F4805021680860A16AE069084344
:104080002843E16B0843E168084321688860616A5E
:10409000606B0843A16B0843A16908432169084389
:1040A00061690843216A084361680843E16C084379
:1040B000A1680843A16C0843A16D08432168C8604A
:1040C000606878B92068806820F4C05040F40060CF
:1040D000216888602068806820F4C06040F48060B7
:1040E000216888602068006D20F001002168086563
:1040F000606800F48000B0F5800F07D12068C068C8
:1041000020F00040616D08432168C8600020C4F8B9
:104110008400012084F8810000207FE710B586B07C
:104120000446142101A8FCF753F93A492068884253
:104130006DD100BF3848006840F40040364908603F
:104140000846006800F40040009000BF00BF00BFB8
:1041500031480838006840F004002F4908390860E9
:104160000846006800F00400009000BF00BF4FF454
:10417000E05001900220029000200390049006205D
:10418000059001A92548FDF785FF254825490860C8
:104190003E2048604021234881600021C1604FF4E7
:1041A00080610161002141618161C16101624162FF
:1041B000FDF7F6FA08B1FCF77AFC00BF1948A067D2
:1041C000846300BF16481830174908603D204860D6
:1041D000002115488160C1604FF4806101610021B8
:1041E00041618161C16101624162FDF7D9FA08B1A3
:1041F000FCF75DFC00BF0C48E067846300BF002251
:1042000011463320FEF7E4F83320FEF7CDF806B070
:1042100010BD0000003C0040E8440258000802586D
:104220001000024060010024D80100247047000003
:104230002DE9F04704460E4617461D464FF0000A8A
:1042400000BF94F88000012802D10220BDE8F08769
:10425000012084F8800000BF94F88180D4F8049095
:10426000B8F1010F10D0B9F5800F04D1A06810B9D2
:10427000B8F1040F08D04FF0020A00BF002084F804
:10428000800000BF5046E1E70EB107B145B94FF0DD
:10429000010A00BF002084F8800000BF5046D5E727
:1042A00094F88100042802D0052084F881000020C1
:1042B0002C34A0652663A586E586A763A587E587D8
:1042C0006064A06454F82C0C806820F4404054F8DA
:1042D0002C1D8860E0680F2804D9E06F8069B0F574
:1042E000804F0CD1E068072812D9E06F8069B0F5E3
:1042F000005F0DD0E06F8069B0F5804F08D04FF0BF
:10430000010A00BF002084F8800000BF50469DE7EE
:104310003F48E16F08643F48E16FC8633E48E16F82
:10432000C8640020E16F0865B4F86A30D4F800C0B2
:104330000CF13001626EE06FFDF7BCFC80B1D4F887
:10434000840040F01000C4F8840000BF002084F80E
:10435000800000BF012084F881008246504675E746
:104360002068806840F48040216888600020A16F48
:104370000864A16FC863A16FC864A16F0865B4F831
:104380006230D4F800C00CF12002E16DA06FFDF79F
:1043900091FC80B1D4F8840040F01000C4F884008F
:1043A00000BF002084F8800000BF012084F8810055
:1043B000824650464AE7A06FC069B0F5807F06D1BB
:1043C000206840686FF30F002168486006E02068AD
:1043D00040686FF30F0028432168486020688068B8
:1043E00040F40040216888602068006940F45870FB
:1043F000216808612068006840F0010021680860B9
:1044000000BF002084F8800000BF50461EE7000077
:10441000734B0008814B0008434B000870470000B5
:1044200010B50446012211023A48FDF731FF3A481F
:104430000068401C3849086038480068C82804D122
:10444000002036490860364908600422354936485C
:10445000FBF792FF50B3012851D1344800682F492F
:10446000096850F82100000E314908702F48006893
:104470002A49096850F82100000C2D4948702B4842
:1044800000682649096830F82100000A2849887028
:10449000264800682149096810F821002449C8709D
:1044A0001E480068401C1D49086028E0214800683B
:1044B0001B49096850F82100000E1D4908701D486D
:1044C00000681749096850F82100000C1849487025
:1044D000184800681249096830F82100000A144998
:1044E0008870144800680E49096810F821001049C6
:1044F000C8700B480068401C0949086000BF00BF35
:1045000000F056FB00224FF480710248FDF7C0FE18
:1045100010BD000000040258180000241000002400
:104520001400002408000024040000241C000024BF
:104530000000002420000024704770B50446254682
:10454000681EB0F1807F01D301200FE0681E4FF09C
:10455000E02148610F214FF0FF3000F073FC002094
:104560004FF0E021886107200861002070BD00BF86
:10457000FEE7000008B500BF0E48006840F00100EB
:104580000C4908600846006800F00100009000BF78
:1045900000BF002211460B20FDF71AFF0B20FDF78C
:1045A00003FF002211460C20FDF712FF0C20FDF73F
:1045B000FBFE08BDD844025800B587B0142102A8FC
:1045C000FBF706FF00BF2348006840F001002149C7
:1045D00008600846006800F00100019000BF00BFBD
:1045E00000BF0846006840F0020008600846006806
:1045F00000F00200019000BF00BF00BF0846006845
:1046000040F0040008600846006800F004000190D3
:1046100000BF00BF00224FF480710F48FDF738FE45
:104620004FF4004002904FF4881003900020049053
:1046300002A90A48FDF72EFD4FF480700290012078
:10464000039000200490059002A90348FDF722FD85
:1046500007B000BDE04402580004025800000258B0
:1046600010B5124812490860002048600021104827
:1046700081600721C1600021016141614FF08061CB
:1046800081610021016241628162C1624163816393
:10469000C163016441648164C164016541658165F0
:1046A000FFF7B8FC08B1FCF702FA10BD003C00406F
:1046B000D800002400BFFEE700BFFEE7704700B54A
:1046C000AFB0BC216846FBF783FE4FF4104000906A
:1046D000282001907D210291012103910221049162
:1046E000059100210691079108914FF48050179091
:1046F00040041B906846FDF7EDFE08B1FCF7D7F9C2
:104700002FB000BD2DE9F04104460E460027554864
:10471000006800F00300032802D10120BDE8F08109
:1047200050482838006820F080604E4928390860D9
:10473000FDF7BAFD054606E0FDF7B6FD401B022871
:1047400001D90320EAE7474828380068C0F3C06071
:104750000028F1D100BF4348006820F47C30216874
:1047600040EA01303F490860A088401EC0F30800BD
:10477000A168491E4FF47E4202EA41210843A18903
:10478000491ED20102EA01410843217C491E12025E
:1047900002EA0161084333491031086000BF314823
:1047A000001D006820F0C000616908432D49091D03
:1047B00008600846006820F02000A16908432949E4
:1047C000091D08600846006820F0100008602548B0
:1047D000143000684FF6F8718843E16940EAC1007F
:1047E0002049143108601F48001D006840F0100087
:1047F0001C49091D08602EB90846006840F40020D5
:10480000086012E0012E08D11648001D006840F42F
:1048100080101449091D086007E01248001D006857
:1048200040F400100F49091D08600E482838006840
:1048300040F080600B4928390860FDF735FD0546DA
:1048400006E0FDF731FD401B022801D9032065E792
:10485000044828380068C0F3C0600028F1D038460A
:104860005CE70000284402582DE9F04104460E465A
:1048700000275548006800F00300032802D10120FA
:10488000BDE8F08150482838006820F080504E493B
:1048900028390860FDF708FD054606E0FDF704FD30
:1048A000401B022801D90320EAE74748283800685E
:1048B000C0F340700028F1D100BF4348006820F0E9
:1048C0007C70218840EA01503F490860A088401E62
:1048D000C0F30800A168491E4FF47E4202EA41215C
:1048E0000843A189491ED20102EA01410843217C03
:1048F000491E120202EA0161084333491831086077
:1049000000BF3148001D006820F440606169084321
:104910002D49091D08600846006820F40070A1694F
:1049200008432949091D08600846006820F4807082
:10493000086025481C3000684FF6F8718843E1692B
:1049400040EAC10020491C3108601F48001D006872
:1049500040F480701C49091D08602EB908460068A3
:1049600040F48000086012E0012E08D11648001DB6
:10497000006840F400001449091D086007E012486F
:10498000001D006840F080700F49091D08600E4846
:104990002838006840F080500B4928390860FDF73E
:1049A00083FC054606E0FDF77FFC401B022801D989
:1049B000032065E7044828380068C0F340700028E9
:1049C000F1D038465CE700002844025810B5024890
:1049D000FFF7DAF910BD0000D8000024184800687D
:1049E00040F400401649086015480838006840F057
:1049F00004001349083908601248006840F0287024
:104A0000104908600846406A0F4908430D4948624A
:104A10000E48006840F080600C4908600B480C3874
:104A2000006840F0010009490C3908600748001F80
:104A3000006840F440400549091F086070470000C5
:104A4000E844025800080258006606000C3C00408A
:104A5000026851690268926942F0080203689A612B
:104A60000268926942F0100203689A610268126853
:104A700022F0010203681A600268126940F26F3383
:104A80009A4303681A610268926822F440420368FC
:104A90009A6090F88120042A0ED001F020025AB1C9
:104AA000D0F8842042F08002C0F884200268926925
:104AB00042F0200203689A6190F88120032A0ED008
:104AC00001F040025AB1D0F8842042F00402C0F84C
:104AD00084200268926942F0400203689A6101F4FE
:104AE00000725AB1D0F8842042F00102C0F884204C
:104AF0000268926942F4007203689A6101F480725C
:104B00005AB1D0F8842042F00802C0F8842002682C
:104B1000926942F4807203689A610022A0F86220D0
:104B2000A0F86A20704770B50546AC6B002062346F
:104B3000208120800120E077623C2046FFF722F9A7
:104B400070BD70B50546AC6B2846FCF77FF90228AE
:104B50000ED02046FFF77CFFD4F8840040F0100010
:104B6000C4F88400012084F881002046FFF70AF988
:104B700070BD70B50446A56B2846FFF7DDFC70BD1F
:104B800070B50546AC6B94F8810007280ED0A06F75
:104B9000C069B0F5807F03D12046FFF741FC05E0F6
:104BA0002068006940F008002168086170BD0000BD
:104BB00000B50848006820F0010006490860064872
:104BC000006920F0010004490861FBF7F3FDFFF7DD
:104BD00005FF00BD003C004000000240704710B5DA
:104BE000FDF768FB10BD000000B59DB04C210AA880
:104BF000FBF7EEFB202102A8FBF7EAFB0220FDF702
:104C000039FC00BF002001904748006820F00100F7
:104C1000454908600846006800F0010001904348DB
:104C2000006840F44040414908600846006800F4CC
:104C30004040019000BF00BF00BF3C48006800F446
:104C40000050B0F5005FF8D100BF3948006840F06F
:104C50000200374908600846006800F00200019031
:104C600000BF00BF00BF002001903048006840F442
:104C700040402E4908600846006800F4404001901A
:104C80002948006840F0010027490860084600688C
:104C900000F00100019000BF00BF00BF2348006882
:104CA00000F40050B0F5005FF8D12148CC3800681E
:104CB00020F003001E49CC39086002200A90012030
:104CC0000D9040200E900220139000211491042199
:104CD00015913C211691022117910521189102216D
:104CE00019910C211A9100211B911C910AA8FEF721
:104CF00049FC08B1FBF7DBFE3F2002900320039044
:104D000000200490082005904020069007900001A4
:104D1000089040200990042102A8FEF78DF908B1FF
:104D2000FBF7C5FE1DB000BD2C0400581848025802
:104D3000F44402583448006840F470003249086076
:104D40003248006800F00F00072806D22F4800689C
:104D500020F00F00C01D2D4908602D48006840F06C
:104D600001002B49086000202949103108602848BB
:104D7000006828490840264908602448006800F077
:104D80000F00072806D92148006820F00F00C01D39
:104D90001E49086000201E4918310860091D08607E
:104DA000091D08601C481A49283108601B48091D64
:104DB00008601B48091D08600020091D086018488C
:104DC000091D08600020091D08601548091D0860BC
:104DD0000020091D08600E48006820F480200C495E
:104DE000086000200A49603108600E4800686FF3CF
:104DF0000F00B0F1005F02D201200B49086043F2BE
:104E0000D2000A490860704788ED00E00020005297
:104E1000004402587FEDF6EA000202020000FF01A2
:104E2000800201010010005C088100510040005226
:104E300000BFFEE702480068C0F302207047000090
:104E40000CED00E010B5002804DB0A07130E054A3C
:104E5000135406E00A07140E034A00F00F031B1F49
:104E6000D45410BD00E400E018ED00E0FDF72EFA88
:104E7000FFF7BAFEFFF723FCFFF79EFBFFF77AFB75
:104E8000FFF7EEFB06E00423034A04490448FFF75A
:104E9000CFF900BFF7E70000040000240000002461
:104EA000D80000244FF04070E1EE100A7047000077
:104EB00026C0F4870440F387F600F08726C0F48705
:104EC000F600F087F600F087F600F08726C0F4873A
:104ED0000440F3870440F387F600F08726C0F48788
:104EE000F600F0870440F38726C0F4870440F38778
:104EF0000440F38726C0F487F600F087F600F087B9
:104F000026C0F48726C0F4870440F387F600F087B4
:104F100026C0F487F600F087F600F0870440F38798
:104F200026C0F487F600F087E880F2872980F587AD
:104F30000440F387F600F0872980F5870440F38763
:104F4000F600F08726C0F4870440F387F600F08768
:104F5000F600F087F600F08726C0F487F600F087A9
:104F60000440F38726C0F487F600F087F600F08748
:104F70000440F387F600F087F600F0870440F387DB
:104F8000F600F08726C0F487F600F0870440F38728
:104F9000F600F0870440F387F600F087F600F0870C
:104FA000F600F087F600F087F600F087F600F0874D
:104FB000E880F2871040F087E040E487F6C0BB87C6
:104FC0004D40EA873700F787A800D387E040E487A1
:104FD0004C802284FF80C8872180A8874C8022844F
:104FE0005480B487140095876F400B846880B18724
:104FF00073C0B38742800D848780C2874A00B6871A
:10500000F600F08717407087F440E7877FC0098576
:1050100048007D8753407F87B80018842E807587AD
:105020000140B887AEC09B84C100BE8641804587E1
:10503000BEC02184D94085869900C087A800D38747
:105040005600C78689809C84FD00E584DBC0D98634
:105050005F004787EA80398757808D876180408568
:10506000C00012846840D5864CC08F879E00408760
:10507000784040874700A0872000CD872780AB84F9
:1050800095C01E84FE00AD875DC0C787FF005F87A7
:1050900073806F87CB40DB87D7005987F440E78761
:1050A00073C0B387D04005875480B4876B40C387F3
:1050B00059003587C580BF874AC0FD8767C0B08764
:1050C00057006B845A007D84E3C04A873B80F58497
:1050D0005C80E9873C404F870E4014841DC0718777
:1050E0008480D4860340028464C0A6869080D786DC
:1050F00050404687B9C0D0874C00EB860B402E87C6
:10510000EC804B8796C05687EF00E5875F40B486FA
:105110007A408B8790001E84AF005387EA803987DE
:1051200050404687F0405E877700418789007A8744
:10513000E540AF87590035875980A2877940B2870B
:10514000FF80C8876640D587B6409A87DF40D887FA
:10515000180000844FC0B6874AC0FD8727003C84F2
:10516000FE00AD87F800DF87E100CA875CC03587A5
:105170008940A6878940A68719008387978078870A
:105180003000778711C09587A8C09887F100708795
:105190005B80698720805A871F806687D500928749
:1051A00073806F8753407F8757808D873AC0AA8767
:1051B000CF00BE876640D587E540AF872780DA8776
:1051C000E100CA878940A687F740DE875740C68737
:1051D000F740DE8725C0CD87FDC0DF879400D687E6
:1051E0004680C58767C0B087C900CC874D40EA8735
:1051F0001880E687B680D187CB40DB87B880FE87F2
:10520000EAC0E58791C0D6873080E087DC40E1873F
:105210008480FB878BC0FA8747C0EB87F800DF8765
:105220007480EF871040F0871F00F187E880F287D5
:105230002980F5871DC000847B40088432C0F78731
:105240002E00E287C24005845C80E9875C80E987A4
:105250002480E3877940B28726C0F487B880FE8730
:1052600091C0D687C2400584324011849E80D78782
:1052700071C00984F800DF870440F387034002848B
:105280004200EB874D40EA873700F7870440F387F9
:1052900059C00F847C40F9879080F8873700F787E2
:1052A0007BC0EE87C24005848E00FA871880E687AF
:1052B0008BC0FA873000068435C00684B880FE872C
:1052C00083800A84E30003A4C18004A4EC4002A408
:1052D000E6C003A4E6C003A4E30003A4C18004A4C1
:1052E000EC4002A4E30003A4E30003A4E30003A44E
:1052F000E6C003A4E6C003A4C18004A4EC4002A459
:10530000C18004A4E6C003A4EC4002A4E6C003A448
:10531000E6C003A4E30003A4E6C003A4C18004A480
:10532000E30003A4E6C003A4E6C003A4EC4002A487
:105330002D4005A4E30003A4C18004A4C18004A4FB
:10534000EC4002A4C18004A4E6C003A4E30003A4CB
:10535000C18004A4E30003A4E30003A4C18004A467
:10536000E30003A4C18004A4E30003A4E30003A4B6
:10537000E6C003A4EC4002A4C18004A4E6C003A4D8
:10538000EC4002A4C18004A4E6C003A4FD8001A4F3
:10539000C18004A4E30003A4E30003A4C18004A427
:1053A000E30003A4E6C003A4E30003A4E6C003A44F
:1053B000E6C003A4E6C003A4E30003A4EC4002A4F7
:1053C000C18004A4E30003A4EC4002A45780FEA71C
:1053D0008F80ECA70800B8A7EC4002A43680E1A7B4
:1053E000A8C0EBA7A64022A4950026A49D40D6A75E
:1053F00028C0A8A714404BA4158083A73900ABA7E9
:1054000090C026A49380B2A754408CA7258013A4F3
:105410005280B5A73CC0ABA7AC808EA721004CA79B
:1054200080400BA4F8C096A4834043A7570018A45B
:10543000B18053A4FA40BBA74A00C5A7E48065A782
:10544000350060A603804BA79400A5A7834043A71F
:10545000684089A7FCC02FA43C8077A79DC041A7C6
:10546000CCC0CEA4F180BBA65280B5A751C050A736
:10547000DD4060A7E14014A4EFC0F2A63B80D8A6AF
:10548000A300C4A7EB40F3A76100FAA7854040A49E
:10549000AE00FDA643C021A72180DBA73900ABA742
:1054A000E14014A47600EFA6EF0096A792C09CA757
:1054B0002F80DBA61AC082A737C0E0A640408FA786
:1054C000D780BDA78D00B0A7C7C0F4A6AFC01AA4EF
:1054D0008D00B0A7CD8091A7C6C029A767806EA414
:1054E000584019A4494051A4D940D9A7B5C047A7ED
:1054F0008F40D6A46F8042A7D30093A743C021A7B3
:1055000061C0B1A7DB4063A4380076A61400E6A70B
:10551000618042A6B0409BA7AEC099A71B003BA7E5
:10552000CF4060A4D30093A77940C1A7628054A75D
:10553000A0801BA4EFC0DDA76380A6A72C4086A790
:1055400022C03EA7710040A7DDC0F7A7A1C044A7B5
:105550008F80ECA76B40B0A7F18094A79380B2A78F
:105560006400B1A7E48065A79340F9A799406FA7AD
:10557000B0409BA7EAC096A7734057A7288074A79E
:105580002B00DAA743006AA71AC082A7D30093A70B
:1055900046C06AA7F6C0C8A7EAC096A75300D0A71E
:1055A000D6C093A78B00C2A7E2C0CBA794C0EEA73A
:1055B000B380E9A72940CDA74D80D2A7CCC0BFA713
:1055C000AFC01AA45EC08DA75300D0A7E4C0B9A78E
:1055D0009340F9A7F000F1A7C900BFA76C800AA407
:1055E0002740E2A72F0012A42180DBA7DEC0CEA7B0
:1055F0001D80DEA72DC0E3A7B3000FA49B80EFA7FB
:10560000F140DFA7DAC006A4BCC0E8A7AD800DA4B6
:105610002800E3A7D940D9A7E6C003A42940CDA715
:10562000318010A49D40D6A7B380E9A7944008A478
:1056300011C0E6A7DD4011A4EA00DDA70780F2A7AC
:105640005780FEA711C0E6A7198016A4D780BDA772
:10565000E6C003A4D58007A4BB40FFA7C18004A473
:10566000EFC0DDA7F70000A4944008A4DDC0F7A7B1
:10567000318010A464C0FAA7AD00EBA79B0009A479
:10568000D800F7A7AF40FCA76100FAA7EC4002A43E
:105690006B80FBA7258013A41900F0A7A2C00CA45F
:1056A0001900F0A7F000F1A7DD4011A40780F2A7D0
:1056B000E6C003A4A2C00CA42D4005A4D800F7A7FF
:1056C000EBC015A4DDC0F7A7DAC006A4A90023A487
:1056D000F2C000A4B8C020A45780FEA70006101690
:1056E000000610160000000001020304010203047A
:1056F00006070809145700080000002438000000BD
:10570000D40200084C570008380000247808000034
:10571000F0020008AABBCCDD000000001000000D64
:10572000500000FC0000000000000000000000002D
:10573000B04E0008C4520008000000001000000035
:0C574000010000000090D0030090D00396
:040000050800029954
:00000001FF
